:020000040800F2
:1000000068140020890100082D080008F105000887
:10001000F5070008B70300082F1E000800000000C5
:1000200000000000000000000000000005150008AE
:10003000BB03000800000000190E0008ED190008BD
:10004000A3010008A3010008A3010008A301000800
:10005000A3010008A3010008A3010008A3010008F0
:10006000A3010008A3010008A3010008A3010008E0
:10007000A3010008A3010008A3010008A3010008D0
:10008000A3010008A3010008A3010008A3010008C0
:10009000A3010008A3010008A3010008A3010008B0
:1000A000A3010008A3010008A3010008A3010008A0
:1000B000651A0008A3010008A3010008A3010008B5
:1000C000A3010008A3010008A3010008A301000880
:1000D000A3010008A51B0008A3010008A301000854
:1000E000A3010008A3010008A301000800F002F822
:1000F00000F03AF80AA090E8000C82448344AAF188
:100100000107DA4501D100F02FF8AFF2090EBAE885
:100110000F0013F0010F18BFFB1A43F0010318473B
:10012000F435000014360000103A24BF78C878C1B6
:10013000FAD8520724BF30C830C144BF04680C60ED
:10014000704700000023002400250026103A28BF35
:1001500078C1FBD8520728BF30C148BF0B60704739
:100160001FB51FBD10B510BD00F0F2F81146FFF726
:10017000F7FF01F0FFFF00F010F903B4FFF7F2FF03
:1001800003BC00F011F90000094880470948004706
:10019000FEE7FEE7FEE7FEE7FEE7FEE7FEE7FEE737
:1001A000FEE7FEE704480549054A064B7047000094
:1001B000051A0008ED000008680E002068140020F1
:1001C000681000206810002053EA020C00F06980DB
:1001D0002DE9F04B4FF00006002B1FBFB3FA83F55B
:1001E00003FA05F424FA05F65E4012BF1643B2FA8C
:1001F00082F502FA05F4C5F120051EBF22FA05FCBE
:1002000044EA0C04203556EA044C4FEA144418BF63
:10021000641C4FF000084FF00009904271EB030C92
:1002200039D3002919BFB1FA81F701FA07F6B0FAFC
:1002300080F700FA07F6C7F120071EBF20FA07FC77
:1002400046EA0C062037B6FBF4FCA7EB0507103F87
:1002500007F01F0BCBF120060CFA0BFB2CFA06F66D
:1002600044BFB3460026202FA4BF5E464FF0000BCC
:100270005BEA060C08BF4FF0010B19EB0B09ABFB57
:10028000027C48EB0608C01B06FB02CC0BFB03CC30
:1002900071EB0C01C1E70B46024641464846BDE8FA
:1002A000F08B13B54FF000004FF00001AFF300806A
:1002B000BDE81C40704710B5431C02E010F8011B5C
:1002C00071B18107FAD14FF0013202C88C1A8C4308
:1002D00014EAC211F9D0C01A0A0603D0C01E10BD1C
:1002E000C01A10BD0A0401D0801E10BD0902FCD046
:1002F000401E10BD4FF0000200B5134694469646CE
:10030000203922BFA0E80C50A0E80C50B1F1200128
:10031000BFF4F7AF090728BFA0E80C5048BF0CC0D6
:100320005DF804EB890028BF40F8042B08BF704734
:1003300048BF20F8022B11F0804F18BF00F8012BA6
:10034000704770477047704700487047040E0020A0
:100350007546FFF7F9FFAE4605006946534620F0A3
:100360000700854618B020B5FFF71CFFBDE8204008
:100370004FF000064FF000074FF000084FF0000B61
:1003800021F00701AC46ACE8C009ACE8C009ACE814
:10039000C009ACE8C0098D4670470446AFF3008041
:1003A0002046FFF7EAFE000001491820ABBEFEE739
:1003B00026000200704700BFFEE7704770B50420BA
:1003C00001F000FB00BF17480068174AB0FBF2F1CC
:1003D000B1F1807F01D301201DE021F07F40401E5C
:1003E0004FF0E022506150170F22002807DA130760
:1003F0001D0E0E4B00F00F04241F1D5503E01307C4
:100400001C0E0B4B1C5400BF00204FF0E0229061EB
:100410000720106100200028D5D100210348C172B7
:1004200070BD00000000002040420F0018ED00E009
:1004300000E400E070B500BF4FF47A734343074D0A
:100440002E686D68991945F1000200BF034C2368BE
:100450006468CB1A72EB0403F8D270BD3000002040
:100460002DE9F0410246002500260020002300244B
:10047000002791F803C00CF00F0591F803C00CF0B1
:10048000100CBCF1000F03D091F802C04CEA050536
:1004900091F800C0BCF1000F31D0146800202BE0AF
:1004A0004FF0010C0CFA00F3B1F800C00CEA03069F
:1004B0009E4220D183004FF00F0C0CFA03F7BC438F
:1004C00005FA03FC4CEA040491F803C0BCF1280FC0
:1004D00006D14FF0010C0CFA00FCC2F814C00AE07F
:1004E00091F803C0BCF1480F05D14FF0010C0CFA94
:1004F00000FCC2F810C0401C0828D1D31460B1F829
:1005000000C0BCF1FF0F34DD546800202EE000F184
:10051000080C4FF0010808FA0CF3B1F800C00CEA1F
:1005200003069E4221D183004FF00F0C0CFA03F713
:10053000BC4305FA03FC4CEA040491F803C0BCF187
:10054000280F05D100F1080C08FA0CF8C2F8148045
:1005500091F803C0BCF1480F07D100F1080C4FF02F
:10056000010808FA0CF8C2F81080401C0828CED305
:100570005460BDE8F0810246002093680B400BB147
:10058000012000E0002070470161704701461448D7
:100590000078022801D1002070471248124A1278D0
:1005A00000EB4200407848700E480F4A127810F86D
:1005B000120008700C480078401C0B4A107010465E
:1005C0000078C82801DB0020107007480078074A2F
:1005D0001278904202D10220014A10700120DBE71C
:1005E0002A000020400300202900002028000020CD
:1005F00000BFFEE700B589B01C2102A8FFF77AFE14
:1006000001A8FFF7C3FF4C48007800284AD0012812
:1006100061D0022822D003281FD19DF805000128AF
:1006200012D19DF8040028B944480168002001F067
:10063000F3FC12E09DF8040001280ED13F48016848
:10064000012001F0E9FC08E09DF80500022804D132
:1006500000F030F90220384908706AE09DF8050082
:10066000012803D09DF8050002281AD19DF8040046
:1006700018B19DF80400012813D100F01BF90320E4
:100680002D4908702EA20021084600F04FFA2B4891
:1006900001F0A8FC29482EA202210368002000F0E6
:1006A00009FB46E09DF80500012803D09DF80500F0
:1006B00002280FD19DF8040018B19DF8040001280C
:1006C00008D100F0F7F8254801F042FC02201A4951
:1006D00008702EE000BF9DF80500012803D09DF8AA
:1006E0000500022825D19DF8040050B900F0E2F879
:1006F0001A4801F02DFC02200F49087001F0ACFFF0
:1007000017E09DF80400012813D100F0D3F8134836
:1007100001F01EFC022008490870002010490870F2
:100720001049087001201049086000200F49086036
:1007300000BF00BF09B000BD5100002038000020FC
:10074000496E6465782E2E2E2E2E2E2E000000006F
:10075000496E646578546F74616C3A00091500083D
:100760004500002046000020480000204C000020EA
:1007700008B50121042000F061FB4FF42040ADF8E2
:10078000000048208DF8030069460248FFF768FE24
:1007900008BD00000008014008B50121242000F038
:1007A0004DFB4FF48070ADF8000010208DF8030071
:1007B00003208DF8020069460C48FFF751FE042023
:1007C000ADF8000010208DF8030003208DF8020022
:1007D00069460748FFF744FE4FF480700349103123
:1007E0000860042002491031086008BD000801407B
:1007F0000014014000BFFEE72DE9F84307460C4610
:1008000015461E46DDF82080384600F049F88DF880
:100810000060E0B28DF80100E8B28DF802008DF8BA
:100820000380684600F004F8BDE8F88370470000D4
:1008300070B5002100230F22C47804B3154C24683E
:1008400004F4E064C4F5E064210AC1F10403CA4081
:10085000447804FA03F184781440214309010E4CD2
:100860000678A155047804F01F050124AC400578F2
:100870006D11AD0005F1E025C5F8004109E00478EF
:1008800004F01F050124AC40044D0678761145F8AC
:10089000264070BD0CED00E000E400E080E100E0E7
:1008A00002490143024A1160704700000000FA0546
:1008B0000CED00E070B5002419E004F1B001C8B2FD
:1008C000002100F079FA0021084600F075FA0021B5
:1008D000102000F071FA002505E00121002000F051
:1008E0006BFA681CC5B2802DF7DB601CC4B2082C03
:1008F000E3DB70BD70B50646002419E004F1B001D9
:10090000C8B2002100F058FA0021084600F054FA5D
:100910000021102000F050FA002505E001213046AA
:1009200000F04AFA681CC5B2802DF7DB601CC4B227
:10093000082CE3DB70BD000038B50121082000F071
:100940007DFA4FF47870ADF8000010208DF80300A8
:1009500003208DF8020069462648FFF781FD4020FC
:100960002449103108608000091D0860002402E05D
:1009700000BF601CC4B2642CFADB4FF480701D49C8
:1009800010310860002000F0DBFE802000F0C2FE85
:100990003F2000F0EDFE002000F0C7FE002000F038
:1009A00017FF042000F08BFE022000F07DFE0120E6
:1009B00000F006FF082000F09AFE102000F08BFEE9
:1009C000CF2000F09CFEF12000F0DDFE402000F082
:1009D0007BFF002000F0BCFE002000F0C1FE0120E3
:1009E00000F0AEFE0020FFF785FF0021084600F072
:1009F0001FF838BD000C014070B50546A5F1200078
:100A00005A2800DD70BD00240CE0A5F1200101EBA7
:100A10004101064A02EB4101085D012100F0CCF9D9
:100A2000601CC4B2062CF0DB00BFEBE7EA34000820
:100A300070B504460D4605F1B001C8B2002100F0C2
:100A4000BBF904EB44014900C1F3031141F010006C
:100A5000002100F0B1F904EB44010F2202EA410049
:100A6000002100F0A9F970BD7CB505460E4614467C
:100A70002CA103C9CDE90001002C03DB20208DF857
:100A8000000003E02D208DF80000644242F20F7058
:100A9000844206DD401C94FBF0F03030C0B28DF88B
:100AA0000100B4F57A7F0DDB42F2107094FBF0F197
:100AB00000FB11404FF47A7190FBF1F03030C0B27E
:100AC0008DF80200632C0CDD4FF47A7094FBF0F18A
:100AD00000FB1140642190FBF1F03030C0B28DF882
:100AE0000300092C0BDD642094FBF0F100FB1140A6
:100AF0000A2190FBF1F03030C0B28DF804000A20DA
:100B000094FBF0F100FB11403030C0B28DF80500CD
:100B100000208DF806006A463146284600F006F8A7
:100B20007CBD000020202020202000002DE9F04185
:100B300005460E461446002731462846FFF778FF43
:100B400005E014F8010BFFF757FF781CC7B22078B7
:100B50000028F6D1BDE8F0812DE9FF4F83B0814632
:100B60009246DDE910564FF0000B0022134628464E
:100B7000314602F03FFA03D82B208DF8000004E044
:100B80002D208DF8000086F000462846314602F000
:100B9000B1F80446204602F0DCF807462A46334600
:100BA00002F05EFA05460E46642094FBF0F0303009
:100BB000C0B28DF80100642094FBF0F100FB1140FD
:100BC0000A2190FBF1F03030C0B28DF802000A200B
:100BD00094FBF0F100FB11403030C0B28DF80300FF
:100BE0002E208DF8040000222C4B2846314602F0BE
:100BF00003F905460E462846314602F07BF80446C6
:100C00000A2094FBF0F44FF47A7094FBF0F030304B
:100C1000C0B28DF805004FF47A7094FBF0F100FB40
:100C20001140642190FBF1F03030C0B28DF8060025
:100C3000642094FBF0F100FB11400A2190FBF1F0DD
:100C40003030C0B28DF807000A2094FBF0F100FBB1
:100C500011403030C0B28DF8080000208DF8090036
:100C60005046FFF728FB00F0FF0BBBF10C0F05DD32
:100C70000BA248460499FFF759FF0BE0524648463D
:100C80000499FFF753FF09EB0B01C8B26A460499B8
:100C9000FFF74CFF07B0BDE8F08F0000006AF84096
:100CA000537472696E6720697320746F6F206C6F64
:100CB0006E6700002DE9FC410546884616461C4635
:100CC00036A103C9CDE900010027002C03DB202059
:100CD0008DF8000003E02D208DF80000644242F200
:100CE0000F70844206DD401C94FBF0F03030C0B23F
:100CF0008DF80100B4F57A7F0DDB42F2107094FBA1
:100D0000F0F100FB11404FF47A7190FBF1F03030BC
:100D1000C0B28DF80200632C0CDD4FF47A7094FBA6
:100D2000F0F100FB1140642190FBF1F03030C0B2D3
:100D30008DF80300092C0BDD642094FBF0F100FB1F
:100D400011400A2190FBF1F03030C0B28DF8040060
:100D50000A2094FBF0F100FB11403030C0B28DF856
:100D6000050000208DF806003046FFF7A4FAC7B250
:100D70000F2F05DD0BA241462846FFF7D7FE0AE0FC
:100D8000324641462846FFF7D1FEE919C8B26A4605
:100D90004146FFF7CBFEBDE8FC810000202020206B
:100DA00020200000537472696E6720697320746F8D
:100DB0006F206C6F6E67000010B500224FF4007357
:100DC000144C2360012902D18023241F236011B910
:100DD0008023104C2360002214E000F0800323B134
:100DE00020230C4C241F236002E02023094C2360A5
:100DF0004023084C23604306180E4023241F236021
:100E0000531CDAB2082AE8DB4FF40073014C241FAC
:100E1000236010BD140C01407047000029B1064A40
:100E2000D2690243044BDA6104E0034AD269824387
:100E3000014BDA61704700000010024029B1064AF8
:100E400092690243044B9A6104E0034A9269824327
:100E5000014B9A61704700000010024010B5012458
:100E600000F0D6F804461948047000F095F81749C8
:100E70004860002C1ED10120087015A200210846F0
:100E8000FFF754FE11484068C30A17A20121002051
:100E9000FFF710FF18A201211320FFF747FE17A24A
:100EA00003210020FFF742FE19A204210020FFF7D2
:100EB0003DFE07E000200549087018A20021084601
:100EC000FFF734FE00200149C86010BDF40D00207A
:100ED000534420696E697469616C697A6520737521
:100EE00063636565640000005344204361726420BD
:100EF00053697A653A0000004D620000506C6561EC
:100F00007365207072657373206B657920746F0050
:100F10007361766520646174612100005344206927
:100F20006E697469616C697A652066616C736521AC
:100F30000000000010B5082002490860FF2000F002
:100F4000A1F910BD1008014070B50546012200212D
:100F5000092000F0E0F9044624B91021284600F0E9
:100F600055F90446FFF7E6FF0CB1012070BD0020E3
:100F7000FCE770B5054640F6FF7401E0601E84B2E0
:100F8000FF2000F07FF9A84201D0002CF6D10CB967
:100F9000FF2070BD0020FCE77FB56846FFF7D4FF57
:100FA00010B1002004B070BD9DF8000000F0C0003A
:100FB000402809D19DF809009DF8081000EB012098
:100FC000401C84B2A50220E09DF8050000F00F004F
:100FD0009DF80A1000EBD1109DF8091001F00301F3
:100FE00000EB4100861C9DF8080080119DF8071059
:100FF00000EB81009DF8061001F0030100EB812059
:10100000441CA6F1090004FA00F52846CAE70000CE
:10101000F8B500F017F900F040F9002504E0FF20D2
:1010200000F030F9681C85B20A2DF8DB142600BFE9
:1010300095220021084600F06EF90446012C04D0E8
:101040003000A6F101018EB2F2D1002051490870A2
:10105000012C4AD187224FF4D571082000F05BF9AA
:10106000012847D1002506E0FF2000F00BF90DF81C
:101070000500681C85B2042DF6DB9DF802000128EE
:1010800079D19DF80300AA2875D14FF6FE7600BFEE
:1010900001220021372000F03EF90122910729208A
:1010A00000F039F9044624B13000A6F101018EB2F6
:1010B000EED1002E5FD0012200213A2000F02BF962
:1010C000002858D1002506E0FF2000F0DBF80DF8DD
:1010D0000500681C85B2042DF6DB9DF8000000F0C9
:1010E000400018B106202B49087044E0042029492B
:1010F000087040E001220021372000F00CF90122A5
:101100000021292000F007F90446012C17DC0220F9
:10111000204908704FF6FE7600BF012200213720DB
:1011200000F0F9F801220021292000F0F4F804462B
:10113000BCB13000A6F101018EB2EED111E0012068
:10114000144908704FF6FE7600BF012200211046B8
:1011500000F0E1F8044624B13000A6F101018EB29E
:10116000F3D12EB101225102102000F0D4F810B1B9
:10117000002008490870FFF7DDFE00F089F80548F7
:10118000007808B10020F8BD0CB12046FBE7AA208A
:10119000F9E70000400000202DE9F04106460F4627
:1011A000154619480078062800D07F02012D0CD181
:1011B00001223946112000F0AEF80446FCB969025C
:1011C000304600F023F8044619E001223946122087
:1011D00000F0A1F8044600BF4FF40071304600F063
:1011E00015F8044606F50076681EC0B2050001D069
:1011F000002CF1D0012200210C2000F08CF8FFF728
:1012000099FE2046BDE8F0814000002070B50446FC
:101210000D46FE20FFF7ADFE08B1012070BD04E0D1
:10122000FF2000F045F92070641C2800A5F10101A1
:101230008DB2F5D1FF2000F025F8FF2000F022F854
:101240000020EBE708B501210420FFF7F7FD1C2083
:10125000ADF8000010208DF8030003208DF8020087
:1012600069460748FFF7FCF81C210548FFF78CF991
:1012700000F036FB082002491031086008BD00006C
:101280000008014010B50446204600F011F910BDD9
:1012900010B5002000F082FA10BD10B5382000F023
:1012A0007DFA10BD10B508200549086000F06FF800
:1012B00008B9002010BDFFF73DFE0120FAE700004D
:1012C0001408014070B506460D4600F060F808B1FC
:1012D000012070BD2846FFF7D5FFFD2D19D0002451
:1012E00004E0305D00F0E4F8601C84B2B4F5007FE7
:1012F000F7DBFF20FFF7C6FFFF20FFF7C3FFFF204C
:10130000FFF7C0FF044604F01F00052801D00220AB
:10131000DFE70020DDE72DE9F04105460C461746E2
:101320004FF00008FFF706FEFFF7BCFF10B1FF20EB
:10133000BDE8F08145F04000FFF7A4FF200EFFF765
:10134000A1FFC4F30740FFF79DFFC4F30720FFF799
:1013500099FFE0B2FFF796FF3846FFF793FF0C2D99
:1013600002D1FF20FFF78EFF4FF01F0800BFFF20C4
:10137000FFF788FF064606F0800030B15FEA0800FC
:10138000A8F1010101F0FF08F1D13046D0E710B516
:10139000002400BFFF20FFF775FFFF2801D10020C8
:1013A00010BD641C6FF07F408442F3D30120F7E747
:1013B0002DE9F04106460F461546204800780628DC
:1013C00000D07F02012D0CD1012239461820FFF7F1
:1013D000A2FF04466CBBFE213046FFF773FF0446B4
:1013E00027E016480078012809D001220021372083
:1013F000FFF791FF012229461720FFF78CFF0122FA
:1014000039461920FFF787FF044694B900BFFC2135
:101410003046FFF757FF044606F50076681EC0B257
:10142000050001D0002CF2D0FD210020FFF74AFF7B
:101430000446FFF77FFD2046BDE8F0814000002014
:1014400021B1028842F04002028004E002884FF697
:10145000BF731A40028070470246002013890B4078
:101460000BB1012000E000207047014688897047D9
:101470008181704710B50022028802F441520B8826
:101480004C8823438C882343CC8823430C892343F3
:101490004C8923438C892343CC8923431A430280FC
:1014A000838B4FF2FF74234083830B8A038210BD2A
:1014B00070B50546002405E0601CC4B2C82C01DDEF
:1014C000002070BD02210E48FFF7C6FF0028F3D0B0
:1014D00029460B48FFF7CCFF002400BF0121084834
:1014E000FFF7BAFF0028F9D0601CC4B2C82C01DD98
:1014F0000020E6E70248FFF7B8FFC0B2E1E70000CE
:10150000003001407047000010B54FF07E51054893
:10151000006801F0C7FE034908600846006800F053
:10152000CBFF10BD3C00002038B5002400254FF44F
:1015300000513D48FFF71FF830B14FF400413A48E1
:10154000FFF719F8002860D100245BE034B94FF4AC
:1015500000513548FFF70FF8054606E0012C04D18D
:10156000E1033148FFF707F80546C5BB2F4850F89F
:101570002400401C2D4941F82400084650F824005E
:101580002B490968884200D83AE0284850F82410CE
:1015900027480068401C814208D18DF80040012096
:1015A0008DF80100009800F047F828E01F4850F837
:1015B000240020490968884200D821E01B4850F8DF
:1015C00024101C480068401C814209D18DF800405D
:1015D00002208DF80100009800F02EF80FE006E0E0
:1015E00013480068401C114941F8240007E08DF8B9
:1015F000004000208DF801000C4941F8240000BF94
:10160000601CC4B2022CA1DB0DE0002409E08DF8BF
:10161000004000208DF80100044941F82400601CBE
:10162000C4B2022CF3DB38BD0008014020000020CA
:101630001C0000201800002001B517480078012880
:1016400001D1002008BD9DF801001449144A127808
:1016500001EB420148709DF800001049104A1278D1
:1016600001F812000E480078401C0D490870084629
:101670000078C82801DB0020087009480078094973
:101680000978884203D101200349087002E0002054
:10169000014908700120D5E72A00002040030020FE
:1016A000280000202900002010B504460021202039
:1016B000FFF782FB00212046FFF77EFB10BD10B52F
:1016C000044600218D20FFF777FB44F01000002135
:1016D000FFF772FB10BD10B504460021DA20FFF7BA
:1016E0006BFB44F002000021FFF766FB10BD10B554
:1016F000044644F0C0000021FFF75EFB10BD10B5AA
:10170000044600218120FFF757FB00212046FFF708
:1017100053FB10BD10B504460021D520FFF74CFB4C
:1017200000212046FFF748FB10BD10B504460021FC
:10173000D320FFF741FB00212046FFF73DFB10BD02
:1017400010B5044644F0AE000021FFF735FB10BD94
:1017500010B5044644F0A4000021FFF72DFB10BD96
:1017600010B5044644F0A6000021FFF725FB10BD8C
:1017700010B504460021A820FFF71EFB00212046DB
:10178000FFF71AFB10BD10B504460021D920FFF762
:1017900013FB00212046FFF70FFB10BD10B50446D8
:1017A0000548848101460548FFF764FE012103488E
:1017B000FFF746FE10BD0000F0050020003001409C
:1017C00010B5044644F0A0000021FFF7F5FA10BD63
:1017D00010B5044644F040000021FFF7EDFA10BDBB
:1017E00010B500F001F810BD0CB50020019000907C
:1017F0003348006840F480303149086000BF304809
:10180000006800F4003000900198401C019000989E
:1018100018B90198B0F5A06FF1D12948006800F41B
:10182000003010B10120009001E0002000900098ED
:10183000012843D12348006840F010002149086086
:101840000846006820F0030008600846006840F081
:10185000020008601A484068194948600846406814
:1018600048600846406840F4806048600846406828
:1018700020F47C1048600846406840F4E810486056
:101880000846006840F08070086000BF0C4800689F
:1018900000F000700028F9D00948406820F00300EB
:1018A000074948600846406840F00200486000BFB1
:1018B0000348406800F00C000828F9D10CBD000076
:1018C000001002400020024010B504460021DB2039
:1018D000FFF772FA00212046FFF76EFA10BD0000F4
:1018E00008B501210420FFF7A9FA01210803FFF739
:1018F000A5FAE020ADF8000018208DF803000320C1
:101900008DF8020069461348FEF7AAFDE021114850
:10191000FEF73AFE0020104908804FF4827048809C
:10192000002088800220C880012008814002488170
:10193000082088810020C881072008820748FFF717
:1019400099FD01210548FFF77BFDFF20FFF7B0FD62
:1019500008BD000000080140F005002000300140F3
:1019600008B5FEF72BFD0A214FF4E15000F08FF887
:10197000FEF712FFFEF7FCFEFEF7DEFFFFF76EFA42
:10198000012025230022014600904FF4A060FEF7BD
:1019900033FF01201C230022022100904FF4A0609D
:1019A000FEF72AFF00F09AFA00F0CAFD08BD000019
:1019B0000348006880F480700149086070470000A7
:1019C0000C080140042808D14FF0E021096941F0DA
:1019D00004014FF0E022116107E04FF0E0210969B6
:1019E00021F004014FF0E0221161704704480368C0
:1019F00040685A1C40F1000001490A604860704785
:101A00003000002010B51348006840F00100114973
:101A1000086008464068104908400E49486008467A
:101A200000680E4908400B4908600846006820F429
:101A3000802008600846406820F4FE0048604FF4AB
:101A40001F008860FFF7CCFE4FF00060044908607B
:101A500010BD0000001002400000FFF8FFFFF6FE7E
:101A600008ED00E010B54FF08040008A00F0010062
:101A700060B14FF08040808900F0010030B14FF636
:101A8000FE704FF08041088200F0CAFC10BD3EB5E8
:101A900004460D4601210846FFF7C0F9681E80B2D2
:101AA000ADF80400601E80B2ADF800000020ADF873
:101AB0000600ADF8020069464FF0804000F020F8C3
:101AC00001221146900700F011F80121880700F06B
:101AD00001F83EBD21B1028842F00102028004E01B
:101AE00002884FF6FE731A40028070471AB183894C
:101AF0000B43838102E083898B438381704700001D
:101B0000002202881D4B98420ED01D4B98420BD0EC
:101B1000B0F1804F08D01B4B984205D01A4B984229
:101B200002D01A4B984204D14FF68F731A404B885B
:101B30001A43174B984207D0164B984204D04FF6E1
:101B4000FF431A40CB881A4302808B8883850B8819
:101B500003850A4B98420BD0094B984208D00E4B94
:101B6000984205D00D4B984202D00D4B984201D1BE
:101B70000B7A03860123838270470000002C01400A
:101B8000003401400004004000080040000C004008
:101B9000001000400014004000400140004401409B
:101BA000004801402DE9F04740F22551704800F00F
:101BB000E7F800287ED06E4800F00CF96D490871F6
:101BC0000846006829287FDB084600682938891DF7
:101BD000085CFF2878D1881F00682838085C5528E1
:101BE00072D1881F00682738085CAA286CD1881F2A
:101BF00000682638085C102866D10020891F81F80B
:101C00006B0008460068A0F129052C4609E05948F8
:101C100090F86B10801D005D0844564981F86B00F8
:101C2000641C54480068401EA042F0DC514890F803
:101C30006B200068401E4F49891D085C82423FD1DD
:101C4000002436E005EB8400001D4A49891D085C2C
:101C5000020605EB8400401D085C02EB004205EB28
:101C60008400801D085C02EB002205EB8400C01D8F
:101C7000085C1618B6F1004F04D36FF00040A0EBDB
:101C8000060900E0B146484601F063F83A4A02EB23
:101C9000C40203C2384800EBC4000022374BD0E92D
:101CA0000071384600F0CEFE334A02EBC40203C294
:101CB000641C01E057E007E0092CC3DB00F0B6F834
:101CC00000202C49086051E02A48006807284DDBB5
:101CD00028480068C01F2749891D085CFF2845D196
:101CE000881F0068801F085C55283FD1881F006846
:101CF000401F085CAA2839D1881F0068001F085CB3
:101D0000772833D10020891F81F86B0008460068CE
:101D1000C51F2C4609E0174890F86B10801D005D28
:101D20000844144981F86B00641C12480068401E86
:101D3000A042F0DC0F4890F86B200068401E0D496F
:101D4000891D085C82420AD18A1F1268921E0B46C6
:101D5000995C9A1F1268D21E985C00F040F800202F
:101D60000449086002E0002002490860BDE8F087ED
:101D70000038014024050020900500200000F040BC
:101D800070B50246002400230025002040F66A16A4
:101D9000B14200D100BFC1F3421501F01F0301267B
:101DA00006FA03F3012D02D19689334006E0022D95
:101DB00002D1168A334001E0968A33400C12012684
:101DC00006FA04F41688344013B10CB1012000E087
:101DD000002070BD01468888C0F3080070470128C4
:101DE00011D18A1F072A0CD2DFE802F0040506078A
:101DF00008090A0006E005E004E003E002E001E073
:101E000000E000BF11E002280FD1A1F16402052A11
:101E100009D2DFE802F003040506070004E003E04E
:101E200002E001E000E000BF00BF7047704700BF64
:101E3000FEE700002DE9F04105460E4690461F469C
:101E4000B8F1000F20D1224800880F283EDA204840
:101E5000008800EB40001F4901EBC004277065605B
:101E60002846002100F06CFCC4E902012661002034
:101E700020760021E161A16215480088401C1449C8
:101E800008800120BDE8F081134800881E281DDA73
:101E90001148008800EB40000E4901EBC00000F53E
:101EA000B474277065602846002100F049FCC4E93D
:101EB00002012661002020760021E161A16206482E
:101EC0000088401C044908800120DBE70020D9E796
:101ED00016000020580000201400002010B5012337
:101EE0001A460C493220FFF7A5FF002301220A49B8
:101EF0004FF47A70FFF79EFF0123002207494FF449
:101F0000FA70FFF797FF0123002205490520FFF72C
:101F100091FF10BDF505000809150008B11900086A
:101F20002915000870B504460D464FF47A72002357
:101F3000064908684968FEF747F9201A65EB010071
:101F40004FF000410840000C002170BD300000201F
:101F500070B50646002517E005EB45001E4901EB6C
:101F6000C004606800B913E02069B0420AD10120C2
:101F7000207062681046002100F0E2FBC4E9020113
:101F8000012070BD681C85B2144800888542E3DBDF
:101F900000BF002519E005EB45000F4901EBC0002B
:101FA00000F5B474606800B913E02069B0420AD14A
:101FB0000120207062681046002100F0C1FBC4E9D6
:101FC00002010120DDE7681C85B2054800888542D2
:101FD000E1DB00BF0020D4E75800002016000020FD
:101FE0001400002010B5ADF5007D04464FF40071DB
:101FF0006846FEF77FF900226946104600F092F924
:1020000038B19DF80800C0EB00209DF80710084487
:1020100020600DF5007D10BD2DE9FC4781460C4682
:1020200007250026FEF746FCB9F1000F2CD14A48DF
:102030000078401C40B248490870084690F90000FA
:10204000112806DD0020087044480078401C4349F0
:10205000087043480078A04207D300204049087028
:102060003D49087001203D4908703D480078C01D79
:102070003B49087008460078A04245D908460078D8
:10208000201AC01DC5B23FE0B9F1010F3CD1324862
:102090000078401E40B230490870084690F90000B0
:1020A00000282ADA2D48007801281ED1601E7E21E2
:1020B000B0FBF1F0401C29490870601E0721B0FBFD
:1020C000F1F126480078401E00EBC000A1EB400073
:1020D00040B2214908700720B4FBF0F100FB114524
:1020E000E01D401B1E49087007E011201A490870C6
:1020F0001A480078401E19490870072D04D1184865
:102100000078C01F164908701448007800F0D6F80F
:1021100014A200210846FEF709FD11480078C01FEF
:10212000421900210620FEF79FFC05B9072500266D
:102130000EE009490878314600F0CAF8CDE90001FF
:10214000701CC1B209A20020FEF706FD701CC6B2C9
:10215000AE42EEDBBDE8FC875300002054000020B7
:1021600052000020496E6465783A00004461746151
:102170003A00000072B6FFF7F3FB62B601E000F030
:1021800075F9FCE770B50446012028490870084637
:1021900000782749C87027480078087126480078D9
:1021A000487126480078887125480068FF21B0FBF7
:1021B000F1F201FB12001E49C87121480068FF219D
:1021C000B0FBF1F01A490872204601F03FF80546CD
:1021D0002A460B46184801781648007800F032F875
:1021E00015480078401C14490870124800781128DE
:1021F0000ED10846007807280AD110480068401C14
:102200000E49086000200B4908700B4908700BE06C
:1022100009480078072807D106480078401C05497E
:10222000087000200449087070BD000044000020C0
:10223000F40B00204500002046000020480000204C
:102240004C0000202DE9F05F0646894614461D46E5
:102250002046294600F04EFD8246504600F079FDAA
:10226000074622462B4600F0FBFE04460D460022A0
:102270000B4B2046294600F0BFFD04460D46204684
:10228000294600F037FD83460BEB0A20C6EBC6015A
:10229000044A02EB810141F82900BDE8F09F0000EB
:1022A000000059400406002010B5002202491046E3
:1022B00000F038F810BD0000F40B002010B5044603
:1022C00022460249012000F02DF810BDF40900203B
:1022D0002DE9F05F04468946C4EBC4010F4A02EBC6
:1022E000810111F8290000F034FD074600220C4B53
:1022F00000F0A8FB05460E46C4EBC401074A02EBFA
:10230000810151F82910081200F023FD82462A4667
:10231000334600F0E3FABDE8F09F0000FC07002020
:10232000000059402DE9F04780460C4692460027B0
:102330003948007810B90020BDE8F087002608E091
:10234000012251462046FEF727FF00B903E0701C2A
:1023500086B20A2EF4DB00BF0A2E01D10020EBE783
:10236000032578272078FE2853D16078772850D12C
:10237000A07803284DD1B8F1000F0BD1002606E05C
:10238000605D3844C7B2681C85B2701C86B2062EE8
:10239000F6DB37E0B8F1010F34D1002630E04FF022
:1023A000000928E0605D0106681C205C01EB00412B
:1023B000A81C205C01EB0021E81C205C0844C6EB53
:1023C000C601164A02EB810141F82900605D3844DC
:1023D000C7B2681C205C3844C7B2A81C205C3844D3
:1023E000C7B2E81C205C3844C7B2281D85B209F189
:1023F00001001FFA80F9B9F1070FD3DB701C86B218
:10240000122ECCDB605DB84201D1012094E70020A0
:1024100092E7002090E70000F40D0020FC07002068
:1024200010B51048008800B910BD0F4C15E0207899
:1024300090B1D4E902211046FFF774FD0023584003
:102440005940084308D062681046002100F078F92E
:10245000C4E9020120698047183460680028E6D189
:1024600000BFE1E7160000205800002010B510481A
:10247000008800B910BD0F4C15E0207890B1D4E968
:1024800002211046FFF74EFD0023584059400843F3
:1024900008D062681046002100F052F9C4E9020138
:1024A00020698047183460680028E6D100BFE1E762
:1024B00014000020C00100202DE9FC410446002545
:1024C00015480068401C1449086014480078022828
:1024D00010D1084612A2002103680846FEF7EAFB65
:1024E000204600F0B3FE11A2CDE900010121002039
:1024F000FEF732FB0F48027823460F49012000F017
:1025000033F9054600231A460C49184600F02CF909
:1025100005402846BDE8FC814C0000205100002009
:10252000446174614E756D3A00000000446174614D
:102530003A00000048000020F4090020F40B0020BD
:1025400010B5FFF7B1FE012840D12148C0782149DC
:10255000087008460078012838D11F490870FEF736
:10256000A9F91B4800791D490870194840791C4990
:102570000870174880791B4908601548007AC0EB3D
:1025800000201349C97908441749086017A200219F
:102590000846FEF7CBFA14481AA20121036800206E
:1025A000FEF788FB1AA203210020FEF7BFFA1EA245
:1025B00004210020FEF7BAFA1FA206210020FEF730
:1025C000B5FA23A207210020FEF7B0FA10BD0000E3
:1025D000F40B0020440000205100002045000020A2
:1025E00046000020480000204C0000204578697318
:1025F000742070726576696F7573206461746121EF
:1026000021000000446174614E756D3A00000000C5
:102610005072657373206B65793120746F20636F1E
:102620006E74696E750000006520746F20736176AA
:1026300065206461746121005072657373206B655D
:10264000793220746F20726566696C6C000000003E
:10265000646174612100000070B533490878FFF7A8
:102660002DFE324908700846007800285AD0002410
:1026700030E02F480078844216D100250FE0C4EBEB
:10268000C4002C4901EB800050F82500C4EBC401C4
:10269000294A02EB810141F82500681CC5B2274890
:1026A00000788542EBDD13E000250FE0C4EBC400A9
:1026B000204901EB800050F82500C4EBC4011E4AFC
:1026C00002EB810141F82500681CC5B2072DEDDB46
:1026D000601CC4B2164800788442CADD17480078EE
:1026E000401C164908701248007811280ED108467F
:1026F000007807280AD10C480068401C0A49086085
:1027000000200B4908700D4908700BE00B48007859
:10271000072807D106480078401C054908700020AA
:102720000649087070BD00004800002050000020DD
:1027300045000020FC070020040600204600002081
:1027400070B504460D464FF47A72002305490868B7
:102750004968FDF739FD00196941401E61F100012A
:1027600070BD0000300000202DE9F04FADF5017D77
:1027700081460D4692469B464FF000084FF400718B
:1027800001A8FDF7B7FD5348007820B900200DF5EA
:10279000017DBDE8F08FFE2028707720687003204F
:1027A000A8704FF078080324B9F1000F0CD100266F
:1027B00007E0285D404400F0FF08601C84B2701CF4
:1027C00086B2062EF5DB4BE0B9F1010F48D1584631
:1027D000FFF7D8FC002641E000273BE0C6EBC6002F
:1027E0003D4901EB800050F82700000E2855285D78
:1027F000404400F0FF08601C84B2C6EBC60001EB49
:10280000800050F82700C0F307402855285D404459
:1028100000F0FF08601C84B2C6EBC60001EB80002C
:1028200030F82700C0F307202855285D404400F009
:10283000FF08601C84B2C6EBC60001EB800010F8F4
:1028400027002855285D404400F0FF08601C84B232
:10285000781C87B2072FC1DB701C86B2122EBBDB3F
:1028600005F80480002630E0012251462846FEF794
:102870009FFD38BB0220FDF7DDFD002708E00122A7
:10288000514601A8FEF788FC00B903E0781C87B226
:10289000042FF4DB00BF042F00D116E00127002431
:1028A00008E0285D01A9095D884201D0002704E005
:1028B000601C84B2B4F5007FF3DB00BF07B904E00D
:1028C000012064E7701C86B200BF0A2ECCDB00201A
:1028D0005DE70000F40D00200406002010B591EA29
:1028E000030F48BF83F0004300F1CE83841A71EBDD
:1028F000030C05D2121943EB0C03001B61EB0C0116
:10290000DFF824E14FEA1154A4EB135C1EEA430FF5
:1029100018BF9EEA445F73D023EA0E03DCF1200E59
:1029200021EA045143F4801332D322FA0CFE10EB57
:102930000E0023FA0CFE41EB0E01CCF1200E03FA3F
:102940000EFE10EB0E0051F10001B1F5801FCCF12D
:10295000200E32D201EB045112FA0EF2BDE8104003
:1029600058BF7047401C38BF5FEA420218BF70472B
:10297000002814BF20F0010041F100014FEA41039B
:1029800013F5001F38BF7047A1F1C04100F02CBB08
:10299000012A43EB0302ACF1200CDCF11F0E32BF25
:1029A0004FF0000E23FA0CF310EB030041EB04513F
:1029B000B4EB115FD0D0A1EB045101F580114908AF
:1029C0005FEA300001EB04510ED350F1000038BF34
:1029D00012FA0EFE08D1BDE81040C9E7401C38BF0E
:1029E0005FEA4202CAD1C3E7BDE810404FEA4103A3
:1029F00013F5001F38BF7047A1F1C04100F0F4BAD1
:102A00009EEA445F08D011EA5E0FBDE8104004BFA3
:102A100001F0004100207047BDE8104070B500F0A3
:102A200095FA00BF64FBBE3E0000E0FF491058BFAE
:102A3000C1F140415B1058BFC3F140438B42EFF3FB
:102A4000008070472DE9C04130B4DFF8A0C23CEAF5
:102A5000111418BF3CEA131400F0EC8081EA03055E
:102A60001CEA111444EAD57418BF1CEA131500F0CF
:102A7000C780A4EB05044FF0004545EAC12145EAB3
:102A8000C32341EA505143EA525304F17F749942FF
:102A900004F500344FEAC0204FEAC22208BF90423A
:102AA00000F09C804FEA13650FF24016765D4FEA06
:102AB000134506FB05F7C7F1807706FB07F74FEADA
:102AC000D737A7FB03687642C8F58038A7FB06CE48
:102AD00038BFA8F1010807FB08E64FF0000EA6FB7F
:102AE000028CE6FB03CEDCF1000CCEF1004E38BFC9
:102AF000AEF1010EA6FB0C584FF000074FF0000599
:102B0000E6FB0E87A1FB08C6A0FB07CE16EB0E0660
:102B100045F10005E1FB076515F1E04E7EBFA4F528
:102B200080345FEA46066D4116F1800745F10005E5
:102B30004FEA17274FEA066647EA0567A6F1DE4621
:102B4000B6F1805F4FEA15251FD9384624F0010CF5
:102B500005EBC471BCF1FE6F01EB0C1102D8F0BCA7
:102B6000BDE8008124425CBF01F5801E9EEAC47F5F
:102B700002D4F0BCBDE80081244238D4F0BCA1F1FD
:102B8000C041BDE8004100F02FBA4FEAD22242EA2C
:102B900043524FEAD323A7FB02864FEAD02040EAF4
:102BA000415007FB03661EEA0E0F4FEAD12105FBD9
:102BB000026658BFA6EB0056B6EB00564FEA520E1F
:102BC0004EEAC37E18EB0E0E56EB530EBDD518EB36
:102BD00002085E417F1C55F10005B6E74FF48015F1
:102BE0004FF000074FF000064FF00008ADE7F0BCD3
:102BF0004FF0000001F1C04101F00041BDE800814B
:102C000011EA0C1F0CEA131500D00CE013EA0C1F9C
:102C100000F025804FF00000F0BC81EA030101F0D4
:102C20000041BDE80081F0BCBDE8004181EA03013C
:102C300000F0DAB9F0BCBDE8004170B500F086F9EB
:102C4000097EFC3E00F007B881EA03014FF0000066
:102C500001F00041704781EA030100F0C5B9F0BC02
:102C6000BDE800414FF0000021497047FFFDFBF92E
:102C7000F7F5F4F2F0EEEDEBE9E8E6E4E3E1E0DEAF
:102C8000DDDBDAD8D7D5D4D3D1D0CFCDCCCBCAC821
:102C9000C7C6C5C4C2C1C0BFBEBDBCBBBAB9B8B748
:102CA000B6B5B4B3B2B1B0AFAEADACABAAA9A8A83B
:102CB000A7A6A5A4A3A3A2A1A09F9F9E9D9C9C9B09
:102CC0009A999998979796959594939392919190B4
:102CD0008F8F8E8E8D8C8C8B8B8A89898888878745
:102CE0008685858484838382828181800000FF07BA
:102CF0000000F87F4FEA41034FEA5353A3F5806386
:102D0000D3F11E03C8BFD3F1210C0CDD4FF00042FC
:102D100042EAC12242EA505232FA03FC8CEAE17CD8
:102D2000ACEBE1707047102BC4BF0020704703F577
:102D3000787CBCF1FF3F04D06FF0004282EA2100B2
:102D4000704770B500F002F9499224800020704766
:102D5000F2E710F0004248BF4042B0FA80F310FAA8
:102D600003F10AD0C3F11D0303F580634FEA41501C
:102D700002EB035202EBD12170474FF00000704785
:102D800051EA030C17D41CF5801F58BFBCF5801FF7
:102D900000F10680994218BF704708BF9042704703
:102DA00007D711F5801F58BF13F5801F19D499421A
:102DB0007047894270471CF5801F08D5BCF5801FFD
:102DC000F7D58B4218BF704708BF824270474FF457
:102DD000001C1CEB410F38BF1CEB430F01D28B4290
:102DE000704770B500F0B2F8922449004FF00051DE
:102DF0004FF08053FFF71ABEDFF848C170B51CEAE8
:102E0000111E1EBF1CEA13159EEA0C0F95EA0C0F4B
:102E100000F06F8081EA030423EA4C134EEAD47E6B
:102E200021EA4C1141F4801143F48013AE44A1FB1C
:102E3000024CA0FB0365AEF17F7E361955EB0C0505
:102E4000A1FB034C4CF10003A0FB021C16EB0C068B
:102E5000654153F10003094218BF46F0010613F41F
:102E6000007F0BD14FEA03314FEA0530340341EACA
:102E7000155140EA16506FF003020AE04FEAC321F1
:102E80004FEAC520F40241EA555140EA56506FF02E
:102E9000020202EB2E4201EB025585EACE710AD006
:102EA0005FEA440C18BF24F0004450F1000041F1E7
:102EB000000120EAD47040F2FE7C624500D270BD71
:102EC000A84214BF4FF080444FF04044002E08BF8A
:102ED0000024BEF1806FA8BFA1F1C041BDE87040E1
:102EE00080F282804FF0000001F1C04101F000410A
:102EF00070479EEA0C0F0CEA131518BF95EA0C0FE9
:102F000006D04FF0000081EA030E0EF0004170BDC4
:102F100000F01CF88900013E00F007B800F009B885
:102F20004FEA430C5FEA5C5C08D081EA030100F0E1
:102F30005BB84FEA410C5FEA5C5CF6D14FF00000F1
:102F4000014970470000FF070000F87F0EF1020EF4
:102F50002EF0030E5EF8046B364205D4012A43EBD3
:102F6000030515F5001F12D8012841EB010C1CF5D3
:102F7000001F0CD80ED14FEAD17C15F5001F0CEBC9
:102F80004C0C0CF1020C08BF4CEBD37C04E04FF06E
:102F9000080C01E04FEAD37C0CEB4C0526FA05F651
:102FA00006F00706B6F1040C06D20EEB860CBDE85F
:102FB00070404CF0010C6047DFE80CF0090B020296
:102FC0004FF000414FF00000A1F5002170BD1946FF
:102FD0001046012851EB010418BFD4F5001484BF3A
:102FE000002001F0004170BD0808A0F500114FEA73
:102FF0003101704753EA010C17D41CF5801F58BFEC
:10300000BCF5801F00F106808B4218BF704708BFD7
:103010008242704707D713F5801F58BF11F5801FF4
:1030200019D48B4270479B4270471CF5801F08D50E
:10303000BCF5801FF7D5994218BF704708BF904272
:1030400070474FF4001C1CEB430F38BF1CEB410FC3
:1030500001D2994270470FB40CBC03BCFFF7C1BE4C
:1030600091EA030F10B581F000413FF53FAC83F0CA
:10307000004300F009B8000010B591EA030F48BF03
:1030800083F000433FF532AC841A71EB030C07D296
:1030900012198CF0004C43EB0C03001B61EB0C018C
:1030A000DFF8A4E14FEA1154A4EB135C1EEA430FCE
:1030B00018BF9EEA445F00F0B08023EA6E035242DC
:1030C00021EA0451C3EB6E0338BF5B1EDCF1200E16
:1030D00025D322FA0CFE10EB0E0043FA0CFE41EB56
:1030E0000E01CCF1200E03FA0EFE10EB0E0051F192
:1030F0000001CCF1200E29D412FA0EF201EB04519A
:10310000BDE8104058BF7047401C1CBFB2F1004FD3
:10311000704700280CBF491C20F00100704712EBDB
:10312000020E43EB030218BF4FF0010E4EEA4202BB
:10313000ACF1200CDCF11E0E54D943FA0CFE10EB5E
:103140000E0051F1FF31CCF11E0ED5D50EF1010E5E
:1031500012FA0EFE404141EB010101EB445C5FEAD3
:103160005C5C10D910EBDE7001EB045138BFBEF18E
:10317000004FBDE8104018BF704700280CBF491C25
:1031800020F00100704730D24FEAD42C11F5001125
:1031900024F400641BD0B1FA81F20B3AA41AA41EE5
:1031A000D2F12003914030FA03F31943904001EB30
:1031B000CC71002C01EB0451BDE81040A8BF704752
:1031C00001F1C0414FF0000001F000417047B0FA3A
:1031D00080F310FA03F100D110BDE41A173C480542
:1031E000C90AE4E701EB045110BD491001EB045199
:1031F000BDE810404FEA300002E04FF00001704798
:103200004A0008BF0042F8D0B2F5001F28BF70473F
:1032100001F000414FF0000070479EEA445F07D084
:1032200011EA5E0FBDE8104004BF00210020704786
:10323000BDE8104070B5FFF789FE00BF40DFF63EE5
:1032400083F00041104670470000E0FF43004FEA62
:10325000D30C4FEA3C0C43401FBF40070CF16051B8
:1032600013F0FE4F70471CF0006F03D100200CF0EC
:10327000004170470CF0004343EA507010B540EA3B
:10328000CC0000F071F800BF000000924FEA00018E
:10329000FFF7AABE4FF000414FF00000A1F500215A
:1032A0007047000090EA010F48BF81F0004100F133
:1032B000AE80421A3CBF801A89184FEAD0524FF0B4
:1032C0007F4C1CEA410FA2EBD15318BF9CEA026F5E
:1032D00000F03B804FF0004C4CEA00204CEA01210A
:1032E00021FA03FC10EB0C0C1ED202F1FF325FEA54
:1032F0001C2040EBC25038BF70471CF07F0F4FEAD4
:10330000400C18BFBCF17F4F38BF7047C3F120039A
:10331000994008BF20F00100BCF17F4F38BF7047D3
:10332000A0F1C04000F066B84FEA3C00000A40EB54
:10333000C25028BF1CF0FF0F4FEA400CE6D018BF68
:10334000BCF17F4F38BF7047EAE79CEA026F05D0B7
:1033500010EA5C0F08BF00F00040704710B500F0A5
:1033600003F800BF64FBBE3E0EF1020E2EF0030E0A
:103370005EF8044B244204D44FEA4102B2F17F4F7D
:1033800011D84FEA4003B3F17F4F0CD80ED14FEA6A
:10339000D07CB2F17F4F0CEB4C0C0CF1020C08BF4F
:1033A0004CEBD17C04E04FF0080C01E04FEAD17CFB
:1033B0000CEB4C0324FA03F404F00704B4F1040CFE
:1033C00006D20EEB840CBDE810404CF0010C6047B7
:1033D000DFE80CF0070802024FF00040A0F5800083
:1033E00010BD0846420018BFD2F1807288BF00F0BD
:1033F000004010BDFF2141EAD050C00570470000D9
:1034000090EA010F48BF81F000413FF552AF421AE8
:1034100004D882F00042A0EB020011444FEAD052DF
:103420004FF07F4C1CEA410FA2EBD15318BF9CEA2E
:10343000026F4AD04FF0004C4CEA00204CEA0121C8
:1034400021FA03FCB0EB0C0C0FD412F0FE0F36D0B7
:103450005FEA4C001DD5001240EBC25038BF7047E8
:103460001CF03F0F18BF70470BE0A2F101025FEAAA
:103470001C2040EBC25038BF70471CF07F0F18BFB4
:103480007047C3F12003994014BF401E20F0010093
:10349000704780084FEA122308BF7047B0FA80FCDB
:1034A000A2EB0C02CCF1280C60FA0CF093EA122F7C
:1034B00004BF00EBC25070474FEAC3707047130A55
:1034C0005FEADC1008BF7047F6E79CEA026F04D0A1
:1034D00010EA5C0F08BF0020704710B5FFF744FFEB
:1034E00040DFF63E81F00040704700000000000021
:1034F0000000002F000000000700070000147F14E8
:103500007F1400242A7F2A120062640813230036E5
:103510004955225000000503000000001C22410014
:10352000000041221C000014083E08140008083E58
:103530000808000000A06000000808080808000053
:1035400060600000002010080402003E5149453E22
:103550000000427F40000042615149460021414540
:103560004B31001814127F10002745454539003CA7
:103570004A49493000017109050300364949493675
:1035800000064949291E0000363600000000563664
:103590000000000814224100001414141414000048
:1035A0004122140800020151090600324959513ED6
:1035B000007C1211127C007F49494936003E41418E
:1035C0004122007F4141221C007F49494941007F3F
:1035D00009090901003E4149497A007F0808087F2E
:1035E0000000417F4100002040413F01007F08145E
:1035F0002241007F40404040007F020C027F007F5C
:103600000408107F003E4141413E007F0909090640
:10361000003E4151215E007F091929460046494973
:1036200049310001017F0101003F4040403F001F40
:103630002040201F003F4038403F006314081463BF
:1036400000070870080700615149454300007F41A9
:103650004100000204081020000041417F000004E6
:10366000020102040040404040400000010204000A
:10367000002054545478007F48444438003844446F
:10368000442000384444487F0038545454180008FB
:103690007E0901020018A4A4A47C007F0804047819
:1036A0000000447D4000004080847D00007F1028A1
:1036B00044000000417F4000007C04180478007C36
:1036C0000804047800384444443800FC24242418B6
:1036D0000018242418FC007C0804040800485454F2
:1036E000542000043F444020003C4040207C001C0B
:1036F0002040201C003C4030403C0044281028441E
:10370000001CA0A0A07C004464544C441414141465
:103710001414000034370008000000205800000096
:10372000280100088C370008580000201014000001
:103730004401000800A24A0400000000000000004C
:1037400001020304060708090000000064000000ED
:103750000A0000000000000000000000000002005D
:103760000000000000000000000000000000000059
:103770000000000000000000000000000100000048
:0C37800000000000000000FF010000003D
:04000005080000ED02
:00000001FF
